:020000040000FA
:060000000A128A110C280F
:10000800FE00030EF0000A08F1000A168A15702E89
:100018000A128A110F288317E130FD001E30FE00F6
:10002800B530FF00BE3084000A168A15ED250A1285
:100038008A1183160317E101E201E301E401E501F6
:10004800E601E701E801E901EA01EB01EC01FA0147
:10005800FB0183010A128A11922B831203134B08A6
:100068008039D0005008D5004B08D0005007D10087
:100078005108DB00CA1F4128422843285B145B084B
:1000880003194728482857285B0A031D4C284D2880
:1000980055280030CB000030CA000030C9000030BD
:1000A800C800CA175F280030CB000030CA000030F3
:1000B800C9000030C8004F088039D0005008D50664
:1000C8004F08D0005007D1005108D600CE1F6D2828
:1000D8006E286F2856145608031973287428832825
:1000E800560A031D7828792881280030CF0000306F
:1000F800CE000030CD000030CC00CE178B28003069
:10010800CF000030CE000030CD000030CC005608C3
:1001180003198F28902895285B08031D9428952893
:100128009E280030CB000030CA000030C9000030E3
:10013800C800912B4808D0005008F2004E080A1653
:100148008A1525270A128A11730883120313E100FE
:100158007208E0006008D000D101D201D301530831
:10016800DA005208D9005108D8005008D7006108B1
:10017800D000D101D201D3015308DF005208DE00BC
:100188005108DD005008DC004908D0005008F20092
:100198004D080A168A1525270A128A117308831230
:1001A8000313E1007208E0006008D000D101D20119
:1001B800D3015008D707510803110318013E03194A
:1001C800E628D807520803110318013E0319ED2841
:1001D800D907530803110318013E0319F428DA0755
:1001E8006108D000D101D201D3015008DC075108C1
:1001F80003110318013E03190229DD0752080311F0
:100208000318013E03190929DE07530803110318CF
:10021800013E03191029DF074A08D0005008F200F0
:100228004C080A168A1525270A128A1173088312A0
:100238000313E1007208E0006008D000D101D20188
:10024800D3015008D707510803110318013E0319B9
:100258002E29D807520803110318013E031935291E
:10026800D907530803110318013E03193C29DA077B
:100278006108D000D101D201D3015008DC07510830
:1002880003110318013E03194A29DD075208031117
:100298000318013E03195129DE07530803110318F7
:1002A800013E03195829DF070830D0000310D70D85
:1002B800D80DD90DDA0DD00B5A294908D0005008AD
:1002C800F2004C080A168A1525270A128A117308A3
:1002D80083120313E1007208E0006008D00061088F
:1002E800D100D201D3015008D707510803110318D0
:1002F800013E03198029D807520803110318013E4B
:1003080003198729D907530803110318013E031954
:100318008E29DA074808D0005008F2004D080A165E
:100328008A1525270A128A11730883120313E1001C
:100338007208E0006008D0006108D100D201D30142
:100348005008D707510803110318013E0319AD29B6
:10035800D807520803110318013E0319B429D90715
:10036800530803110318013E0319BB29DA070830A3
:10037800D0000310D70DD80DD90DDA0DD00BBD293B
:100388004808D0005008F2004C080A168A1525279C
:100398000A128A11730883120313E1007208E0003D
:1003A8006008D0006108D100D201D3015008D707F6
:1003B800510803110318013E0319E329D80752080D
:1003C80003110318013E0319EA29D9075308031139
:1003D8000318013E0319F129DA074908D00050082B
:1003E800F2004E080A168A1525270A128A11730880
:1003F80083120313E1007208E0006008D00061086E
:10040800D100D201D3015008DC07510803110318A9
:10041800013E0319102ADD07520803110318013E93
:100428000319172ADE07530803110318013E03199D
:100438001E2ADF074A08D0005008F2004D080A16A5
:100448008A1525270A128A11730883120313E100FB
:100458007208E0006008D0006108D100D201D30121
:100468005008DC07510803110318013E03193D2AFF
:10047800DD07520803110318013E0319442ADE0759
:10048800530803110318013E03194B2ADF074A08D2
:10049800D0005008F2004E080A168A1525270A12BD
:1004A8008A11730883120313E1007208E0006008E0
:1004B800D0006108D100D201D30108300310D00D5B
:1004C800D10DD20DD30DFF3E031D622A5008DC0763
:1004D800510803110318013E0319732ADD07520856
:1004E80003110318013E03197A2ADE075308031182
:1004F8000318013E0319812ADF075708D00058085E
:10050800D1005908D2005A08D30018300310D30C70
:10051800D20CD10CD00CFF3E031D8A2A5008DC07F0
:10052800510803110318013E03199B2ADD075208DD
:1005380003110318013E0319A22ADE075308031109
:100548000318013E0319A92ADF070830D000031059
:10055800D70DD80DD90DDA0DD00BAB2A5B0856078D
:10056800D000D101D10D5008823EE0005108031897
:10057800013EFF3EE100DD2A0130D0000310DC0D12
:10058800DD0DDE0DDF0DD00BC22ADA1FCC2ACD2AF5
:10059800CE2A5C140130D0000310D70DD80DD90D28
:1005A800DA0DD00BD02AFF30E0070318E10AFF303C
:1005B800E107DE1FE02AE12AC02AD601DA1FE52A70
:1005C800E62A022BFF305705D000FF305805D1002E
:1005D800FF305905D2007F305A05D3005308520422
:1005E800510450040319F92AFA2AFD2AD601D60A19
:1005F800022B5C1C002B012B022BFA2A560803192C
:10060800062B072B382B0130DC070030031801308C
:10061800DD07003003180130DE0700300318013011
:10062800DF075F1C182B192B382B5C08D0005D08DE
:10063800D1005E08D2005F08D3000130D400530D0A
:10064800D30CD20CD10CD00CD40B232B5308DF00C5
:100658005208DE005108DD005008DC000130E007D8
:100668000318E10A0030E1076108803AFF00803092
:100678007F02031D412BFF306002031C442B452BD6
:10068800502B7F3083120313DF008030DE000030F0
:10069800DD000030DC00852B831203136108803AEB
:1006A800FF0080307F02031D5B2B013060020318BE
:1006B8005E2B5F2B6B2B003083120313DF0000309F
:1006C800DE000030DD000030DC00D501852B831210
:1006D80003136008D0005008DB00FF30DC05FF3052
:1006E800DD057F30DE050030DF055B1C7C2B7D2BB4
:1006F8007E2BDE175B08D0000310500CD100510888
:10070800DF005508D0005008DF045F08CB005E0802
:10071800CA005D08C9005C08C80008000A168A11EA
:1007280023220A128A11D8308400D230831203138C
:10073800EB000408EC000E30ED006B088400831712
:100748000008EE00EB0A6C08840083136E08800032
:10075800EC0AED0BA12BF30104300A168A15332697
:100768000A128A11C4308400BE3083120313EB00CE
:100778000408EC001430ED006B08840083170008AF
:10078800EE00EB0A6C08840083136E088000EC0A04
:10079800ED0BC02B83160317B501B601BB01BC01D5
:1007A800FF30B700FF30B80083160313EA01EB01EE
:1007B80083160317B201B301B901BA0183160313F3
:1007C800E601E7013830F6009130F70080308312F7
:1007D8000313EB006B08F8000A168A15D1270A12D2
:1007E8008A1101300A168A154E270A128A118312B5
:1007F8000313EB006B0883160317BD0000300A16BD
:100808008A154E270A128A1183120313EB006B080C
:1008180083160317AD0000300A168A1551260A12EE
:100828008A11720883120313EB007308EC00ED01C0
:10083800EE016E08A3006D08A2006C08A1006B0809
:10084800A00000300A168A1177260A128A1183122C
:1008580003132308B5002208B4002108B3002008B8
:10086800B2004430B1008030B0000030AF0000303A
:10087800AE000A128A11EB250A128A118312031399
:100888003108CF003008CE002F08CD002E08CC004C
:100898004230CB00C830CA000030C9000030C80060
:1008A8000A128A1131200A128A11831203134B0883
:1008B800E5004A08E4004908E3004808E2000A168F
:1008C8008A1139240A128A118312031363088316C2
:1008D8000313E90083120313620883160313E80065
:1008E800690883120313A50083160313680883128B
:1008F8000313A4000A168A115C220A128A11AA306C
:100908000A168A15FE260A128A11AA300A168A11B0
:10091800B5240A128A110430831603173D06031DF5
:10092800962C972CDB2C3208330403199C2C9E2C14
:1009380001309F2C003083120313EB00EC016B088D
:1009480083160317B200831203136C088316031768
:10095800B3002830F6009030F7008030831203137C
:10096800EB006B08F8000A168A15D1270A128A11BB
:100978002830F6009030F700C03083120313EB00E4
:100988006B08F8000A168A15D1270A128A11FF3057
:1009980083120313EB006B0883160317BD0083163D
:1009A8000313E601E70183160317B901BA013208F8
:1009B8003304031DE02CE32C0A128A1562288316DF
:1009C80003136A086B04031DEA2CEB2CFA2CB330D2
:1009D800F6009130F700CA3083120313EB006B085E
:1009E800F8000A168A15D1270A128A1183160317E6
:1009F8003D03031D002D012D552D9E30F60091302D
:100A0800F700CA3083120313EB006B08F8000A16CC
:100A18008A15D1270A128A11013083160313EA00B6
:100A28000030EB00FF3083160317B700FF30B80023
:100A38003C0883120313A100831603173B08831293
:100A48000313A000831603173B0883120313EB005C
:100A58006B07C43E840083130008A200840A0008C0
:100A6800A300B930A4009130A5000A168A113327D3
:100A78000A128A11013083160317B5070318B60A3C
:100A88000030B6070130BB070318BC0A0030BC07AA
:100A98000A303B063C04031D522D532D552DBB0136
:100AA800BC0102303D06031D5A2D5B2DCF2D0130B0
:100AB80083160313EA000030EB0001308316031796
:100AC800B7070318B80A0030B807073037063804E4
:100AD800031D6F2D702D722DB701B80137088312D1
:100AE8000313EB006B07D83E840083130008F6005D
:100AF800840A00088403F700CA30ED006D08F80086
:100B08000A168A15D1270A128A11831603173C0878
:100B180083120313A100831603173B0883120313E0
:100B2800A000831603173B0883120313EB006B071F
:100B3800C43E840083130008A200840A0008A300AE
:100B480083160317370883120313EC006C07D83E8B
:100B580084000008A400840A00088403A5000A167B
:100B68008A1133270A128A11013083160317B50731
:100B78000318B60A0030B6070130BB070318BC0AD1
:100B88000030BC070A303B063C04031DCC2DCD2D9C
:100B9800CF2DBB01BC0103303D06031DD42DD52D3F
:100BA800E62B013083160313EA000030EB00FF3018
:100BB80083160317B7070318B80AFF30B807B81F1A
:100BC800E82D0A128A1500280A128A1504288312A9
:100BD800031335088039B6003608BF003508B6005B
:100BE8003607B7003708C600B41FFB2DFC2DFD2DB6
:100BF800461446080319012E022E122E460A031D1A
:100C0800062E072E0F2E0030B5000030B40000303D
:100C1800B3000030B200B417B5011A2E0030B50089
:100C28000030B4000030B3000030B2003108803921
:100C3800B6003608BF063108B6003607B7003708D1
:100C4800C700B01F282E292E2A2E4714470803193B
:100C58002E2E2F2E3F2E470A031D332E342E3C2EC8
:100C68000030B1000030B0000030AF000030AE00FE
:100C7800B017B101472E0030B1000030B00000308D
:100C8800AF000030AE00310830042F042E04031DDD
:100C98004E2E4F2E682E0030B5000030B4000030C4
:100CA800B3000030B2008030B4047F30B5043F0890
:100CB800B6003608B5043508B1003408B00033086A
:100CC800AF003208AE00C72F4608031D6C2E6D2EEC
:100CD800762E0030B1000030B0000030AF00003098
:100CE800AE00C72F4608B600B7013708B900470855
:100CF8003602B800031CB90338087F3EC000390823
:100D08000318013E003EC1003508BE003408BD008E
:100D18003308BC003208BB000030B5000030B40016
:100D28000030B3000030B2000030C5000030C4000D
:100D38000030C3000030C200C701EC2E4708031979
:100D4800A62EA72EC72E0130B6000310BB0DBC0D72
:100D5800BD0DBE0DB60BA92E0130B6000310B20DA5
:100D6800B30DB40DB50DB60BB22EC51FBC2EBD2EDE
:100D7800BE2E32140130B6000310C20DC30DC40DCF
:100D8800C50DB60BC02E31083E02031DD52E300806
:100D98003D02031DD52E2F083C02031DD52E2E081B
:100DA8003B02031CD82ED92EE82E45172E08BB026D
:100DB8002F08031C2F0FBC023008031C300FBD0284
:100DC8003108031C310FBE020130B6003608C707D0
:100DD8001A304702031CF12EF22EA22E3E083D04C3
:100DE8003C043B040319F92EFA2E192F4214192F2B
:100DF8000130B6000310B20DB30DB40DB50DB60B2E
:100E0800FE2EC51F082F092F0A2F32140130B600F5
:100E18000310C20DC30DC40DC50DB60B0C2FFF304A
:100E2800C0070318C10AFF30C107B41F1C2F1D2FAC
:100E3800FC2EC701C51F212F222F3E2FFF30420550
:100E4800B600FF304305B700FF304405B8007F30D7
:100E58004505B90039083804370436040319352F15
:100E6800362F392FC701C70A3E2F321C3C2F3D2F82
:100E78003E2F362F47080319422F432F742F013076
:100E8800B207003003180130B307003003180130EF
:100E9800B407003003180130B507351C542F552FFF
:100EA800742F3208B6003308B7003408B800350884
:100EB800B9000130BA00390DB90CB80CB70CB60C32
:100EC800BA0B5F2F3908B5003808B4003708B300EB
:100ED8003608B2000130C0070318C10A0030C10744
:100EE8004108803AFF0080307F02031D7D2FFF30CC
:100EF8004002031C802F812F8F2FFF308312031392
:100F0800C0000030C1000030B5000030B40000302F
:100F1800B3000030B200831203134108803AFF0087
:100F280080307F02031D9A2F0130400203189D2F45
:100F38009E2FAB2F83120313C001C1010030B500EF
:100F48000030B4000030B3000030B200BF0183129B
:100F580003134008B6003608C600461CB42FB52F48
:100F6800B72FB417BB2F7F30B6003608B405460834
:100F7800B6000310360CB7003708B5003F08B600B6
:100F88003608B5045F2E0800F5007218CC2FD02F54
:100F9800831203130915D32F83120313091175083C
:100FA800F03988008914A630F300F30BD92F00001C
:100FB80083120313891075080F39F30003300310E7
:100FC800F30DFF3E031DE32F0310730D88008914F2
:100FD800A630F300F30BEE2F0000831203138910E1
:100FE8001B30F4009E30F300F30BF82FF40BF82FAE
:040FF80000000800ED
:101000000630B7000030B800370883120313EB0036
:101010006B07D83E840083130008F600840A00089A
:101020008403F700CA30ED006D08F8000A168A152F
:10103000D1270A128A15831603173C08831203135B
:10104000A100831603173B0883120313A000831625
:1010500003173B0883120313EB006B07C43E8400A5
:1010600083130008A200840A0008A3008316031754
:10107000370883120313EC006C07D83E8400000885
:10108000A400840A00088403A5000A168A113327E5
:101090000A128A15013083160317B5070318B60A1A
:1010A0000030B6070130BB070318BC0A0030BC078C
:1010B0000A303B063C04031D5E285F285C2BBB0105
:1010C000BC012E2B0530F6009130F70080308312E2
:1010D0000313EB006B08F8000A168A15D1270A12D1
:1010E0008A158316031366086704031D7828792878
:1010F000DF280A168A113A250A128A158312031369
:1011000020032104031985288628DF28F430F600FF
:101110009030F7008030EB006B08F8000A168A1553
:10112000D1270A128A152830F6009030F700C03017
:1011300083120313EB006B08F8000A168A15D127F7
:101140000A128A1583160313EC01ED0101306D02BA
:10115000F43003196C02031CAE28AF28B028DA283B
:10116000EE01EF0101306F02F43003196E02031C2F
:10117000BA28BB28BC28CB280130EE070318EF0A99
:101180000030EF0701306F02F43003196E02031CC8
:10119000CA28CB28BC280130EC070318ED0A003020
:1011A000ED0701306D02F43003196C02031CD928DD
:1011B000DA28B02883160317B201B3012E2B0130B1
:1011C00083160313E6000030E700EA01EB01831603
:1011D0000317A301A40101300A168A154E270A122B
:1011E0008A1583120313EB006B0883160317BD00E7
:1011F00000300A168A154E270A128A158312031325
:10120000EB006B0883160317AD0004303D06031D89
:101210000A290B29462932083304031910291229F7
:1012200001301329003083120313EB00EC016B082B
:1012300083160317B200831203136C088316031777
:10124000B3002830F6009030F7008030831203138B
:10125000EB006B08F8000A168A15D1270A128A15C6
:101260002830F6009030F700C03083120313EB00F3
:101270006B08F8000A168A15D1270A128A15FF3062
:1012800083160317B9000030BA00062B05302D066F
:10129000031D4B294C295E290130A3070318A40A1A
:1012A0000030A407003024020B3003192302031C72
:1012B0005A295B297529A301A401062B23082404BC
:1012C00003196329642975290130B9070318BA0A7B
:1012D0000030BA07053039063A04031D7029712918
:1012E0007329B901BA01A301A40106303D06031D0B
:1012F0007A297B29F02AFF30B9070318BA0AFF3090
:10130000BA07390A031D88293A0A031D8829892941
:10131000F02A0430B9000030BA00F02A27307B02EE
:10132000103003197A02031C96299729B6293930FF
:10133000F6009030F700803083120313EB006B0847
:10134000F8000A168A15D1270A128A156C30F600A1
:101350009030F700C03083120313EB006B08F800E5
:101360000A168A15D1270A128A15EB283930F60099
:101370009030F700803083120313EB006B08F80005
:101380000A168A15D1270A128A157D30F600903088
:10139000F700C03083120313EB006B08F8000A1645
:1013A0008A15D1270A128A15EB2827307B021030C4
:1013B00003197A02031CDD29DE29FD294A30F600D3
:1013C0009030F700803083120313EB006B08F800B5
:1013D0000A168A15D1270A128A157C30F600913038
:1013E000F700C03083120313EB006B08F8000A16F5
:1013F0008A15D1270A128A15EB285B30F600903047
:10140000F700803083120313EB006B08F8000A1614
:101410008A15D1270A128A157C30F6009130F70020
:10142000C03083120313EB006B08F8000A168A150C
:10143000D1270A128A15EB2827307B0210300319B6
:101440007A02031C242A252A432A4A30F6009030C7
:10145000F700803083120313EB006B08F8000A16C4
:101460008A15D1270A128A157C30F6009130F700D0
:10147000C03083120313EB006B08F8000A168A15BC
:10148000D1270A128A154A30F6009030F7008030D2
:1014900083120313EB006B08F8000A168A15D12794
:1014A0000A128A158D30F6009130F700C030831291
:1014B0000313EB006B08F8000A168A15D1270A12ED
:1014C0008A15EB2827307B02103003197A02031C9F
:1014D0006A2A6B2A8A2A8E30F6009030F700803014
:1014E00083120313EB006B08F8000A168A15D12744
:1014F0000A128A151630F6009130F700C0308312B8
:101500000313EB006B08F8000A168A15D1270A129C
:101510008A15EB289F30F6009030F7008030831258
:101520000313EB006B08F8000A168A15D1270A127C
:101530008A151630F6009130F700C030831203137D
:10154000EB006B08F8000A168A15D1270A128A15D3
:10155000EB2827307B02103003197A02031CB12AD2
:10156000B22AD12A8E30F6009030F70080308312F4
:101570000313EB006B08F8000A168A15D1270A122C
:101580008A151630F6009130F700C030831203132D
:10159000EB006B08F8000A168A15D1270A128A1583
:1015A000EB288E30F6009030F70080308312031362
:1015B000EB006B08F8000A168A15D1270A128A1563
:1015C0002730F6009130F700C03083120313EB0090
:1015D0006B08F8000A168A15D1270A128A15EB281B
:1015E0003A08003A0319F52AEB283908003A03199A
:1015F0008E29013A0319D529033A03191C2A013A05
:101600000319622A073A0319A92AEB2839083A0470
:10161000031D0B2B0C2B5E2C35083604031D112BE0
:10162000122B5D2B1630F6009030F700C03083127D
:101630000313EB006B08F8000A168A15D1270A126B
:101640008A15831603179001910101301102F430BD
:1016500003191002031C2D2B2E2B312B0A128A1179
:10166000E62B9201930101301302F43003191202A8
:10167000031C3B2B3C2B3D2B4C2B013092070318BA
:10168000930A0030930701301302F4300319120259
:10169000031C4B2B4C2B3D2B013090070318910A58
:1016A0000030910701301102F43003191002031CBD
:1016B0005A2B5B2B312B2E2B2E2BA501A601A7011C
:1016C000A80100308316031736020B3003193502C8
:1016D000031C6B2B6C2B702B0A30B5000030B6004E
:1016E00001300A168A154E270A128A15831203132F
:1016F000EB006B0883160317BD0000300A168A152D
:101700004E270A128A1583120313EB006B08831607
:101710000317AD0004303D06031D8F2B902BC52B06
:10172000320833040319952B972B0130982B003086
:1017300083120313EB00EC016B0883160317B2004E
:10174000831203136C0883160317B3002830F600C6
:101750009030F700803083120313EB006B08F80021
:101760000A168A15D1270A128A152830F6009030F9
:10177000F700C03083120313EB006B08F8000A1661
:101780008A15D1270A128A152E2B06302D06031D25
:10179000CA2BCB2BDD2B0130A5070318A60A00307E
:1017A000A607003026020B3003192502031CD92B93
:1017B000DA2BF72BA501A6012E2B250826040319E9
:1017C000E22BE32BF72B0130A7020030031CA80308
:1017D000A802270A031DF02B280A031DF02BF12B6A
:1017E000F52B3608A8003508A700A501A60105308D
:1017F0003D06031DFC2BFD2B0F2C0130A707031802
:10180000A80A0030A80736082806031D092C350849
:101810002706031D0C2C0D2C0F2CA701A801B001CD
:1018200010303002031C152C162C172C3C2C2708CA
:1018300083120313EB006B07C43E84008316031767
:101840003008831300070A168A1577270A128A15AB
:1018500083120313EC00831603173008A03E8400A4
:10186000831203136C08831380000130EB006B08B4
:1018700083160317B007102C83160313B0014930E9
:10188000F6009130F700803083120313EB006B08F1
:10189000F8000A168A15D1270A128A15A030F60018
:1018A0000030F700C03083120313EB006B08F80020
:1018B0000A168A15D1270A128A15612B39033A04B0
:1018C000031D632C642C9F2D3830F6009130F700F7
:1018D000803083120313EB006B08F8000A168A1598
:1018E000D1270A128A152830F6009030F700C03050
:1018F00083120313EB006B08F8000A168A15D12730
:101900000A128A1583160317370883120313EB0094
:101910006B07D83E840083130008F600840A000891
:101920008403F700CA30ED006D08F8000A168A1526
:10193000D1270A128A158316031369088312031329
:10194000A50083160313680883120313A4000A1664
:101950008A115C220A128A15023083160317AE0020
:101960000030AF00A101A20101300A168A154E27EE
:101970000A128A1583120313EB006B0883160317F0
:10198000BD0000300A168A154E270A128A158312E6
:101990000313EB006B0883160317AD0005303D06FB
:1019A000031DD32CD42CE62CFF30AE070318AF0A4E
:1019B000FF30AF072E0A031DE12C2F0A031DE12C77
:1019C000E22CE62C0230AE000030AF0006302D06CF
:1019D000031DEB2CEC2C002D0130A1070318A20AEB
:1019E0000030A2072208803AFF0080307F02031DEA
:1019F000FB2C65302102031CFE2CFF2C4C2DDA2819
:101A0000210822040319052D062D4C2D01308312C7
:101A10000313EB00831603172E08AA3E84008312DB
:101A200003136B088317800764300006031D192D0C
:101A30001A2D202D831603172E08AA3E840080013C
:101A400083160317A101A2012A0883120313EB00D6
:101A50006B08F30002300A168A1515260A128A1539
:101A6000831603172B0883120313EB006B08F30094
:101A700001300A168A1515260A128A1583160317CD
:101A80002C0883120313EB006B08F30000300A16D6
:101A90008A1515260A128A1527307B021030031981
:101AA0007A020318542D552D982D862DBC30F60042
:101AB0009130F700C03083120313EB006B08F8007D
:101AC0000A168A15D1270A128A15B42CBC30F600E2
:101AD0009130F700C33083120313EB006B08F8005A
:101AE0000A168A15D1270A128A15B42CBC30F600C2
:101AF0009130F700C63083120313EB006B08F80037
:101B00000A168A15D1270A128A15B42C83160317D0
:101B10002F08003A03198D2DB42C2E08003A031912
:101B2000562D013A0319662D033A0319762DB42C6C
:101B3000AA300A168A11B5240A128A15B42C02306A
:101B400039063A04031DA52DA62D252F5A30F6007F
:101B50009130F700803083120313EB006B08F8001C
:101B60000A168A15D1270A128A150A168A113A25E9
:101B70000A128A158312031320032104031DC12DA9
:101B8000C22DD02E6B30F6009130F7008030EB0084
:101B90006B08F8000A168A15D1270A128A15283010
:101BA000F6009030F700C03083120313EB006B088F
:101BB000F8000A168A15D1270A128A158316031708
:101BC000A901FF3083120313EB006B08EF008316AB
:101BD0000317B40101300A168A154E270A128A1516
:101BE00083120313EB006B08EF0004308316031716
:101BF0003406031DFC2DFD2DFE2D6D2E05308312A8
:101C000003136F06031D052E062E222E83160317BF
:101C10003408C63E83120313EB006B08F6002A302B
:101C20000A168A15D8250A128A1503148316031773
:101C3000A90D013083120313EB006B088316031701
:101C4000B407EA2D06306F06031D272E282E442EDA
:101C5000831603173408C63E83120313EB006B0888
:101C6000F6002A300A168A15D8250A128A15831614
:101C70000317290883120313EB006B07EC006C08B1
:101C800083160317A900192E27307B021030031981
:101C90007A0203184C2E4D2E5D2E8316031734083E
:101CA000C63E83120313EB006B08F6005F300A1682
:101CB0008A15D8250A128A15EA2D831603173408C7
:101CC000C63E83120313EB006B08F60020300A16A1
:101CD0008A15D8250A128A15EA2D290883120313BA
:101CE000EB006B08F30004300A168A1533260A123B
:101CF0008A15D230F6009030F7008030831203133B
:101D0000EB006B08F8000A168A15D1270A128A150B
:101D1000C130F6009030F700C03083120313EB009F
:101D20006B08F8000A168A15D1270A128A1583163D
:101D300003179401950101301502F43003191402C0
:101D4000031CA32EA42EA52E2E2B96019701013045
:101D50001702F43003191602031CAF2EB02EB12E59
:101D6000C02E013096070318970A003097070130FC
:101D70001702F43003191602031CBF2EC02EB12E19
:101D8000013094070318950A0030950701301502B9
:101D9000F43003191402031CCE2ECF2EA52E2E2BA9
:101DA000F430F6009030F7008030EB006B08F8005C
:101DB0000A168A15D1270A128A152830F6009030A3
:101DC000F700C03083120313EB006B08F8000A160B
:101DD0008A15D1270A128A158316031798019901CB
:101DE00001301902F43003191802031CF82EF92EE1
:101DF000FA2E2E2B9A019B0101301B02F43003199D
:101E00001A02031C042F052F062F152F01309A07E5
:101E100003189B0A00309B0701301B02F4300319A2
:101E20001A02031C142F152F062F013098070318D0
:101E3000990A0030990701301902F4300319180289
:101E4000031C232F242FFA2E2E2B033039063A049D
:101E5000031D2B2F2C2F872FB501B601BB01BC0111
:101E6000B030F6009030F700803083120313EB009F
:101E70006B08F8000A168A15D1270A128A15E33072
:101E8000F6009030F700C03083120313EB006B08AC
:101E9000F8000A168A15D1270A128A158316031725
:101EA0009C019D0101301D02F43003191C02031C2A
:101EB0005A2F5B2F5C2F2E2B9E019F0101301F029A
:101EC000F43003191E02031C662F672F682F772F2B
:101ED00001309E0703189F0A00309F0701301F0240
:101EE000F43003191E02031C762F772F682F013060
:101EF0009C0703189D0A00309D0701301D02F43035
:101F000003191C02031C852F862F5C2F2E2B0030FB
:101F1000F3009030F4000A168A15D8260A128A15A2
:101F200083160317A001E52F83160317B1011030A4
:101F30003102031C9C2F9D2F9E2FC32F200883123C
:101F40000313EB006B07C43E8400831603173108AC
:101F5000831300070A168A1577270A128A15831237
:101F60000313EC00831603173108B13E840083127B
:101F700003136C08831380000130EB006B08831699
:101F80000317B107972F0A3083120313EB006B0876
:101F900083160313C1000D3083120313EB006B088B
:101FA00083160313C200C301B130F3000030F40004
:101FB0000A168A15D8260A128A15013083120313CD
:101FC000EB006B0883160317A00720088312031386
:101FD000EB00EC01831603173608831203136C021F
:101FE000031DF82F831603173508831203136B02A2
:101FF000031CFB2FFC2F942F2E2B0A128A110C2866
:1020000020342034203420342034543469346D3466
:1020100065342034203420342034203447342034B4
:102020002034533450340A340D34003420342034F6
:1020300020342034203445346D3470347434793491
:1020400020344C346F34673420342034203400344E
:1020500020342034203420342034203420342034E0
:1020600020342034203420342034203420342034D0
:1020700000342034203420344D3445344E3455342B
:1020800020342034203420342034203420342034B0
:1020900020340034203420342034533465347434F4
:1020A0002034743469346D34653420342034203461
:1020B0002034203400342D343E34203453346534FD
:1020C00074342034743469346D34653420342034ED
:1020D000203420342034003420342034203456344A
:1020E00069346534773420346C346F346734203489
:1020F000203420342034203400342D343E34203435
:10210000563469346534773420346C346F34673432
:10211000203420342034203420340034203420343F
:10212000203443346C3465346134723420346C347C
:102130006F346734203420342034203400342D347C
:102140003E34203443346C3465346134723420348A
:102150006C346F346734203420342034203400341D
:10216000203420346C346F346734203463346C345E
:10217000653461347234653464342034203420345E
:1021800000342034203420345334753463346334C1
:10219000653473347334663475346C3420342034CD
:1021A00020340034203420344E34653477342034E5
:1021B000503461347334733477346F34723464342C
:1021C00020342034003420342034733475346334A4
:1021D0006334653473347334663475346C346C34FE
:1021E00079342034203400342034573472346F343E
:1021F0006E3467342034503461347334733477343C
:102200006F347234643420340034203445346E34F6
:10221000743465347234203450346134733473341C
:1022200077346F34723464342034003420342034F2
:10223000203464346F3477346E346C346F346134EA
:10224000643420346C346F346734203400342D34DB
:102250003E34203464346F3477346E346C346F34ED
:102260006134643420346C346F3467342034003487
:10227000543469346D3465342034203420342034AF
:102280002034203447342034203420345334503424
:10229000003420342034543469346D3465342034AF
:1022A0002034203420342034473420342034533434
:1022B0005034003445346E34743472342034703405
:1022C000723465347634203450346134733473346A
:1022D00077346434003445346E3474346534723485
:1022E00020346E34653477342034503461347334A0
:1022F000733477346434003420342034203443344D
:10230000683461346E346734653420347034613439
:10231000733473347734643400342D343E342034D1
:102320004334683461346E34673465342034703437
:102330006134733473347734643400344334203478
:1023400000344734313400344734323400344734B5
:1023500033340034473434340034473435340034B3
:1023600047344E3400344F344E3400344734523402
:0E237000003443345F3400345F345F34003493
:1023820083120313981718162608AA002708AB0011
:102392002808AC002908AD0004300310AA0DAB0DCB
:1023A200AC0DAD0DFF3E031DCE292D08F5002C0806
:1023B200F4002B08F3002A08F2000130F900313052
:1023C200F8002D30F7000030F6000A168A11682353
:1023D2000A168A117208FF3E831603139900080039
:1023E2008312031394152608AA002708AB002808B5
:1023F200AC002908AD0002300310AA0DAB0DAC0DE4
:10240200AD0DFF3E031DFD292D08F5002C08F4003B
:102412002B08F3002A08F2000130F9003130F800ED
:102422002D30F7000030F6000A168A1168230A16CA
:102432008A117208FF3E831603139300831203135B
:10244200941608000A168A15A5250A168A110A1674
:102452008A15C8250A168A11003083120313A900AF
:102462000130A8008630A700A030A6000A168A1103
:10247200F1210A168A110A168A15FC250A168A11F2
:102482000A168A156C250A168A1100308312031364
:10249200A9000030A8002530A7008030A6000A1647
:1024A2008A11C1210A168A110A168A1585250A1669
:1024B2008A118B170800013083120313A600003023
:1024C200A7000A30F2000030F3002508F5002408C6
:1024D200F4000A168A11AC220A168A117208303EDA
:1024E200F900831203132608EA3E84007908831751
:1024F20080000A30F2000030F3002508F5002408BD
:10250200F4000A168A11D0230A168A11730883125C
:102512000313A5007208A400FF30A6070318A70A38
:10252200FF30A707260A031D9A2A270A031D9A2AA3
:102532009B2A622A83160317EC01EA30F600013067
:10254200F700CE30F9007908F8000A168A15D1276B
:102552000A168A110800F801F51FB02AB12AB82A12
:10256200F409F509F40A0319F50AF801F80AF31F48
:10257200BB2ABC2AC12AF209F309F20A0319F30A97
:10258200720873040319C62AC72AF62AF701F70A42
:10259200D52A01300310F20DF30DFF3E031DCB2AA5
:1025A2000130F6007608F707F31FD82AD92ACA2A7B
:1025B20073087502031DDF2A72087402031CE22AE3
:1025C200E32AE92A7208F4027308031CF503F502F0
:1025D20001300310F30CF20CFF3E031DEA2A013016
:1025E200F702031DF52AF62AD92A78080319FA2ACE
:1025F200FB2A002BF409F509F40A0319F50A7508F8
:10260200F3007408F2000800C330F700CD30F60082
:10261200F60B092BF70B092BF20133300A128A1140
:10262200C8270A168A111B30F7009E30F600F60BF7
:10263200182BF70B182B0000F20133300A128A1103
:10264200C8270A168A11A630F600F60B262B0000C0
:10265200F20133300A128A11C8270A168A11312B65
:10266200322B0000F20102300A128A11C8270A1620
:102672008A11A630F600F60B3C2B0000F20128303E
:102682000A128A11C8270A168A11A630F600F60B1A
:10269200482B0000F20101300A128A11C8270A16DB
:1026A2008A110430F7003D30F600F60B562BF70B7B
:1026B200562B5B2BF2010C300A128A11C8270A161C
:1026C2008A11A630F600F60B642B000008000030D9
:1026D20083120313A4000030A3000030A2000030D4
:1026E200A10075087404730472040319792B7A2B00
:1026F200C72BA501A50A8A2B0130A0000310F20DF9
:10270200F30DF40DF50DA00B7F2B0130A000200876
:10271200A507F51F8D2B8E2B7D2B0130A0000310FA
:10272200A10DA20DA30DA40DA00B902B750879028B
:10273200031DA52B74087802031DA52B73087702CD
:10274200031DA52B72087602031CA82BA92BB82BFC
:102752007208F6027308031C730FF7027408031C55
:10276200740FF8027508031C750FF9022114013069
:102772000310F50CF40CF30CF20CFF3E031DB92B05
:102782000130A502031DC62BC72B8E2B2408F50092
:102792002308F4002208F3002108F2000800831243
:1027A2000313A101F31FD62BD72BDE2BF209F3095A
:1027B200F20A0319F30AA101A10AF51FE12BE22B88
:1027C200EB2BF409F509F40A0319F50A0130F600B6
:1027D2007608A106A201A301720873040319F22B61
:1027E200F32B2A2CA001A00A012C01300310F20DB8
:1027F200F30DFF3E031DF72B0130F6007608A0070C
:10280200F31F042C052CF62B01300310A20DA30D8F
:10281200FF3E031D062C73087502031D122C72085D
:102822007402031C152C162C1D2C7208F40273085A
:10283200031CF503F502221401300310F30CF20C11
:10284200FF3E031D1E2C0130A002031D292C2A2C41
:10285200052C210803192E2C2F2C342CA209A30994
:10286200A20A0319A30A2308F3002208F2000800AF
:10287200031083120313640D650DE6006608F90068
:102882007908031D452C462C4F2C0030E500003002
:10289200E4000030E3000030E200B42C6208E600FD
:1028A2006308E7006408E8006508E9001F300310C8
:1028B200E90CE80CE70CE60CFF3E031D582C6608F9
:1028C200EA006A08F800E417FF30E205FF30E3058A
:1028D200FF30E4050030E5059630F902F91F722C4D
:1028E200732C8D2C7908803A973E0318792C7A2C18
:1028F2007B2C462C01300310E50CE40CE30CE20CBB
:10290200FF3E031D7C2C0130E6006608F907031D1B
:102912008B2C8C2C7B2CA42C20307902031C922C27
:10292200932C9F2C462C0130E6000310E20DE30DA0
:10293200E40DE50DE60B962C0130F9027908031D32
:10294200A32CA42C942C78080319A82CA92CB42C01
:10295200E209E309E409E509E20A0319E30A0319B2
:10296200E40A0319E50A0800F900790884008317CC
:10297200000883120313A00004300310A00CFF3ED2
:10298200031DBE2C20080339303EA1002108831606
:102992000317E1007908840000080F39303E8312E2
:1029A2000313A000200883160317E2003A308312B3
:1029B2000313A000200883160317E300790A84009A
:1029C200000883120313A00004300310A00CFF3E82
:1029D200031DE62C20080739303EA100210883168A
:1029E2000317E400790A840000080F39303E83128D
:1029F2000313A000200883160317E5003A30831260
:102A02000313A000200883160317E6007908023E8C
:102A12008400000883120313A00004300310A00CEA
:102A2200FF3E031D0F2D20080739303EA10021086B
:102A320083160317E7007908023E840000080F3965
:102A4200303E83120313A000200883160317E80008
:102A5200E901E130F6000130F700C03083120313C0
:102A6200A0002008F8000A168A15D1270A168A1132
:102A7200080004300A168A1577270A168A1183126B
:102A82000313A2002208A4002830F6009030F700B9
:102A9200C030A2002208F8000A168A15D1270A16A9
:102AA2008A1183120313A601A70101300A168A159F
:102AB2004E270A168A1183120313A2002208A500C8
:102AC20004302706031D662D672D682DBD2D0530A8
:102AD2002506031D6D2D6E2D862D2708C63EA200EC
:102AE2002208F6002A300A168A15D8250A168A11F3
:102AF200831203132608A2002207A3002308A600BC
:102B02000130A2002208A707562D06302506031D14
:102B12008B2D8C2D9C2D2708C63EA2002208F60084
:102B22002A300A168A15D8250A168A110314831226
:102B32000313A60D812D27307B02103003197A0270
:102B42000318A42DA52DB12D2708C63EA2002208E8
:102B5200F6005F300A168A15D8250A168A11562DF4
:102B62002708C63EA2002208F60020300A168A155F
:102B7200D8250A168A11562D24082606031DC22DB1
:102B8200C32DC82D0130A0000030A100CA2DA00124
:102B9200A101080083120313881108158814081470
:102BA2006430F2000030F300FF30F2070318F30A3A
:102BB200FF30F307720A031DE22D730A031DE22D93
:102BC200E32DD52D831203130618E82DE92DEB2DE5
:102BD2000130762E8618EE2DEF2DF12D0230762E55
:102BE2000619F42DF52DF72D0330762E88150811D0
:102BF200881408146430F2000030F300FF30F2074A
:102C02000318F30AFF30F307720A031D0C2E730A2E
:102C1200031D0C2E0D2EFF2D831203130618122EE8
:102C2200132E152E0430762E8618182E192E1B2ED2
:102C32000530762E06191E2E1F2E212E0630762ED8
:102C420088150815881008146430F2000030F3006B
:102C5200FF30F2070318F30AFF30F307720A031D6D
:102C6200362E730A031D362E372E292E8312031396
:102C720006183C2E3D2E3F2E0730762E8618422E09
:102C8200432E452E0830762E0619482E492E4B2EFD
:102C92000930762E88150815881408106430F20061
:102CA2000030F300FF30F2070318F30AFF30F30796
:102CB200720A031D602E730A031D602E612E532EAD
:102CC200831203130618662E672E692E2A30762E7B
:102CD20086186C2E6D2E6F2E0030762E0619722EEF
:102CE200732E752E2330762EFF30080083120313C5
:102CF200A800280803197E2E7F2E932EA31F822E52
:102D0200832E932E2009AA002109AB002209AC00D0
:102D12002309AD00AA0A0319AB0A0319AC0A031965
:102D2200AD0A9B2E2308AD002208AC002108AB009F
:102D32002008AA002308220421042004031DA22E35
:102D4200A32EAC2E0030A3000030A2000030A10060
:102D52000030A000322F9630A4002408A900BE2E15
:102D62000130A4002408A90701300310AD0CAC0CFB
:102D7200AB0CAA0CFF3E031DB62EFE302D05031D23
:102D8200C32EC42EB12EE02E0130A4002408A907C0
:102D92000130AA07003003180130AB0700300318D6
:102DA2000130AC07003003180130AD0701300310C9
:102DB200AD0CAC0CAB0CAA0CFF3E031DD82EFF30A1
:102DC2002D05031DE52EE62EC52EF22E0130A90299
:102DD2000130A4000310AA0DAB0DAC0DAD0DA40B78
:102DE200EB2EAC1BF52EF62EFC2E02302902031818
:102DF200FB2EFC2EE72E2918FF2E002F082FFF3066
:102E0200AA05FF30AB057F30AC05FF30AD050310DE
:102E1200A90C2908A400A501A601A70118300310D6
:102E2200A40DA50DA60DA70DFF3E031D102F24080E
:102E3200AA042508AB042608AC042708AD04280818
:102E42000319242F252F2A2FA31F282F292F2A2F9A
:102E5200AD172D08A3002C08A2002B08A1002A08F8
:102E6200A0000800831203132008303EF500750805
:102E7200F30022080A168A1533260A168A1101302F
:102E820083120313A2070318A30A0030A3075F30BB
:102E9200F5007508F30022080A168A1533260A1669
:102EA2008A11013083120313A2070318A30A003008
:102EB200A307F8017808E13E840083170008F500B3
:102EC2007508F30022080A168A1533260A168A1193
:102ED200013083120313A2070318A30A0030A307C9
:102EE2000130F5007508F80708307802031C7A2FC4
:102EF2007B2F5B2F2030F5007508F30022080A169D
:102F02008A1533260A168A11013083120313A20787
:102F12000318A30A0030A3072508FF002408840031
:102F22000A168A1500200A168A11F5007508F300A0
:102F320022080A168A1533260A168A1101308312CC
:102F42000313A2070318A30A0030A3070130F500F8
:102F52000030F60075082407840076080318760A04
:102F62002507FF000A168A1500200A168A11F700A3
:102F72007708F30022080A168A1533260A168A11E0
:102F8200013083120313A2070318A30A0030A30718
:102F92002030F5007508F30022080A168A15332638
:102FA2000A168A11013083120313A2070318A30A17
:102FB2000030A307831603176A08F5007508F300AB
:102FC2008312031322080A168A1533260A168A1157
:102FD200013083120313A2070318A30A0030A307C8
:102FE200831603176B08F5007508F30083120313A9
:102FF20022080A168A1533260A168A110800FF1BB0
:103002000A2883137F1883170008840A0319FF0A0A
:1030120008007F087F398A000408840A0319FF0A1E
:0230220082002A
:103AD800831603139F17831203131F1408000A1673
:103AE8008A15BB250A168A158316031311140800B4
:103AF8000A168A15BB250A168A158316031311158B
:103B080008008316031381128115063083120313EC
:103B180081008B1608000A168A157C250A168A1554
:103B28000A168A1573250A168A150800F2000A165D
:103B38008A15BB250A168A15720883120313930087
:103B48000800831603138801091189100A168A11BF
:103B580005230A168A150800F20072088312031357
:103B680099000C1EB82DB92DB52D0C12080083161E
:103B780003131419C02DC12DBB2D11081F39031DA6
:103B8800C62DC72DBB2D080083160313060807385A
:103B980086000808F03988008113831203138815FA
:103BA8000815881408140800F700F20176080A12AC
:103BB8008A11C8270A168A15F201F20A77080A122A
:103BC8008A11C8270A168A1508007E088A007F0805
:103BD80082000A168A15E9250A168A158000840AC1
:103BE80004087D0603190034FF0A0319FE0AED2DA7
:103BF80000300A168A15A4270A168A15F8007808CC
:103C0800F90079087F39F8007808F9007908F80090
:103C18007808F30000300A168A1515260A168A1540
:103C28000800F4000A168A1573250A168A15D0307A
:103C38000A168A159A250A168A1574080A168A1504
:103C48009A250A168A1573080A168A159A250A16D5
:103C58008A150A168A157C250A168A150800F400A2
:103C68000A168A1573250A168A15A0300A168A15A7
:103C78009A250A168A1574080A168A159A250A16A4
:103C88008A1573080A168A159A250A168A150A16B5
:103C98008A157C250A168A150800F5007508F400AF
:103CA80003300310F40DFF3E031D552E831203133A
:103CB8001F08C73974049F001F151F19642E652E2D
:103CC800612E1E08F700831603131E08F6007708F6
:103CD800F3007608F20008000B1D732E742E8B2E4D
:103CE800831203130108083E81000130FA07031804
:103CF800FB0A0030FB0720307A064E3003197B069A
:103D0800031D872E882E8A2EFA01FB010B117108DC
:103D18008A00700E8300FE0E7E0E0900F3000A165C
:103D28008A15BB250A168A158316031391150A16D8
:103D38008A15BB250A168A15831203131308F20085
:103D48007208F4007303031DAA2EAB2EAF2E831640
:103D580003139116B22E83160313911211167408C9
:103D68000800103400342034003430340034403437
:103D780000345034003460340034703400348034FB
:103D8800003490340034A0340034A1349134A43485
:103D98009134A7349134AA349134AD349134B63483
:103DA8009134B03491340134ED2E7408FF00730857
:103DB80084000A168A1500200A168A150A168A151A
:103DC800B0250A168A150130F3070318F40A0030E3
:103DD800F407740883120313FF00730884000A169B
:103DE8008A1500200A168A15003A031DFC2EFD2E9E
:103DF800D92E0800F90002300A168A15A4270A16D7
:103E08008A15F80079088400780883178000013043
:103E18000A168A15A4270A168A15F800790A840052
:103E280078088317800000300A168A15A4270A1616
:103E38008A15F8007908023E840078088317800004
:103E4800080083120313A400A001A1017208F40062
:103E5800F5017408A2007508A300241C342F352F1F
:103E68003B2F2208A0070318A10A2308A107013045
:103E78000310A20DA30DFF3E031D3C2F0310A40C3D
:103E88002408031D482F492F312F2108F30020084B
:103E9800F2000800F5000A168A11CB250A168A15C1
:103EA800F4007408F6007508031D5B2F5C2F5E2F65
:103EB8007608762F760A0319622F632F6C2F8316E4
:103EC800031760080319692F6A2F6C2FE0015C2F14
:103ED800760A031D702F712F752F83160317E001C3
:103EE800E00AFF300800F6000A168A1573250A163C
:103EF8008A15A0300A168A159A250A168A15760890
:103F08000A168A159A250A168A150A168A158F25F9
:103F18000A168A15A1300A168A159A250A168A15CC
:103F280000300A168A1592260A168A15F5007508B1
:103F3800F7000A168A157C250A168A1577080800DC
:103F4800F6000A168A1573250A168A15D0300A163D
:103F58008A159A250A168A1576080A168A159A2540
:103F68000A168A150A168A158F250A168A15D13057
:103F78000A168A159A250A168A1500300A168A150D
:103F880092260A168A15F5007508F7000A168A158A
:103F98007C250A168A1577080800F20178080A12A3
:103FA8008A11C8270A168A15EF2FF201F20A770834
:103FB800FF00760884000A168A1500200A168A155A
:103FC8000A128A11C8270A168A150130F60703183B
:103FD800F70A0030F707770883120313FF00760803
:103FE80084000A168A1500200A168A15003A031D4D
:083FF800FE2FFF2FD92F080056
:02400E00FB3F76
:00000001FF
